{
  "contractName": "ShareVoting",
  "abi": [
    {
      "inputs": [],
      "stateMutability": "nonpayable",
      "type": "constructor"
    },
    {
      "anonymous": false,
      "inputs": [
        {
          "indexed": true,
          "internalType": "address",
          "name": "creator",
          "type": "address"
        },
        {
          "indexed": true,
          "internalType": "string",
          "name": "proposalId",
          "type": "string"
        },
        {
          "indexed": false,
          "internalType": "string",
          "name": "name",
          "type": "string"
        },
        {
          "indexed": false,
          "internalType": "string",
          "name": "description",
          "type": "string"
        }
      ],
      "name": "ProposalCreated",
      "type": "event"
    },
    {
      "anonymous": false,
      "inputs": [
        {
          "indexed": true,
          "internalType": "address",
          "name": "creator",
          "type": "address"
        },
        {
          "indexed": true,
          "internalType": "string",
          "name": "proposalId",
          "type": "string"
        },
        {
          "indexed": false,
          "internalType": "string",
          "name": "name",
          "type": "string"
        },
        {
          "indexed": false,
          "internalType": "string",
          "name": "description",
          "type": "string"
        }
      ],
      "name": "ProposalEdited",
      "type": "event"
    },
    {
      "anonymous": false,
      "inputs": [
        {
          "indexed": true,
          "internalType": "address",
          "name": "creator",
          "type": "address"
        },
        {
          "indexed": false,
          "internalType": "uint256",
          "name": "shares",
          "type": "uint256"
        }
      ],
      "name": "ShareholderEdited",
      "type": "event"
    },
    {
      "anonymous": false,
      "inputs": [
        {
          "indexed": true,
          "internalType": "address",
          "name": "creator",
          "type": "address"
        },
        {
          "indexed": false,
          "internalType": "string",
          "name": "name",
          "type": "string"
        }
      ],
      "name": "ShareholderRegistered",
      "type": "event"
    },
    {
      "anonymous": false,
      "inputs": [
        {
          "indexed": true,
          "internalType": "address",
          "name": "voter",
          "type": "address"
        },
        {
          "indexed": true,
          "internalType": "string",
          "name": "proposalId",
          "type": "string"
        },
        {
          "indexed": false,
          "internalType": "bool",
          "name": "inSupport",
          "type": "bool"
        }
      ],
      "name": "Voted",
      "type": "event"
    },
    {
      "inputs": [
        {
          "internalType": "string",
          "name": "",
          "type": "string"
        }
      ],
      "name": "exists",
      "outputs": [
        {
          "internalType": "bool",
          "name": "",
          "type": "bool"
        }
      ],
      "stateMutability": "view",
      "type": "function",
      "constant": true
    },
    {
      "inputs": [
        {
          "internalType": "string",
          "name": "",
          "type": "string"
        }
      ],
      "name": "indexMap",
      "outputs": [
        {
          "internalType": "uint256",
          "name": "",
          "type": "uint256"
        }
      ],
      "stateMutability": "view",
      "type": "function",
      "constant": true
    },
    {
      "inputs": [
        {
          "internalType": "address",
          "name": "",
          "type": "address"
        }
      ],
      "name": "isShareholder",
      "outputs": [
        {
          "internalType": "bool",
          "name": "",
          "type": "bool"
        }
      ],
      "stateMutability": "view",
      "type": "function",
      "constant": true
    },
    {
      "inputs": [],
      "name": "owner",
      "outputs": [
        {
          "internalType": "address",
          "name": "",
          "type": "address"
        }
      ],
      "stateMutability": "view",
      "type": "function",
      "constant": true
    },
    {
      "inputs": [],
      "name": "proposalCount",
      "outputs": [
        {
          "internalType": "uint256",
          "name": "",
          "type": "uint256"
        }
      ],
      "stateMutability": "view",
      "type": "function",
      "constant": true
    },
    {
      "inputs": [
        {
          "internalType": "uint256",
          "name": "",
          "type": "uint256"
        }
      ],
      "name": "proposalIds",
      "outputs": [
        {
          "internalType": "string",
          "name": "",
          "type": "string"
        }
      ],
      "stateMutability": "view",
      "type": "function",
      "constant": true
    },
    {
      "inputs": [
        {
          "internalType": "string",
          "name": "",
          "type": "string"
        }
      ],
      "name": "proposals",
      "outputs": [
        {
          "internalType": "string",
          "name": "proposalId",
          "type": "string"
        },
        {
          "internalType": "string",
          "name": "name",
          "type": "string"
        },
        {
          "internalType": "string",
          "name": "description",
          "type": "string"
        },
        {
          "internalType": "uint256",
          "name": "endTime",
          "type": "uint256"
        },
        {
          "internalType": "uint256",
          "name": "totalSharesPercentage",
          "type": "uint256"
        },
        {
          "internalType": "uint256",
          "name": "forVotesPercentage",
          "type": "uint256"
        },
        {
          "internalType": "uint256",
          "name": "againstVotesPercentage",
          "type": "uint256"
        },
        {
          "internalType": "bool",
          "name": "open",
          "type": "bool"
        },
        {
          "internalType": "string",
          "name": "ipfsHash",
          "type": "string"
        }
      ],
      "stateMutability": "view",
      "type": "function",
      "constant": true
    },
    {
      "inputs": [
        {
          "internalType": "address",
          "name": "",
          "type": "address"
        }
      ],
      "name": "shareIndexMap",
      "outputs": [
        {
          "internalType": "uint256",
          "name": "",
          "type": "uint256"
        }
      ],
      "stateMutability": "view",
      "type": "function",
      "constant": true
    },
    {
      "inputs": [
        {
          "internalType": "uint256",
          "name": "",
          "type": "uint256"
        }
      ],
      "name": "shareholderAddresses",
      "outputs": [
        {
          "internalType": "address",
          "name": "",
          "type": "address"
        }
      ],
      "stateMutability": "view",
      "type": "function",
      "constant": true
    },
    {
      "inputs": [
        {
          "internalType": "address",
          "name": "",
          "type": "address"
        }
      ],
      "name": "shareholders",
      "outputs": [
        {
          "internalType": "address",
          "name": "shareholderAddresses",
          "type": "address"
        },
        {
          "internalType": "string",
          "name": "name",
          "type": "string"
        },
        {
          "internalType": "uint256",
          "name": "sharesPercentage",
          "type": "uint256"
        },
        {
          "internalType": "bool",
          "name": "isRegistered",
          "type": "bool"
        },
        {
          "internalType": "bool",
          "name": "approved",
          "type": "bool"
        },
        {
          "internalType": "string",
          "name": "ipfsHash",
          "type": "string"
        }
      ],
      "stateMutability": "view",
      "type": "function",
      "constant": true
    },
    {
      "inputs": [],
      "name": "getOwner",
      "outputs": [
        {
          "internalType": "address",
          "name": "",
          "type": "address"
        }
      ],
      "stateMutability": "view",
      "type": "function",
      "constant": true
    },
    {
      "inputs": [
        {
          "internalType": "string",
          "name": "_name",
          "type": "string"
        },
        {
          "internalType": "uint256",
          "name": "_sharesPercentage",
          "type": "uint256"
        },
        {
          "internalType": "string",
          "name": "_hash",
          "type": "string"
        }
      ],
      "name": "registerSelfAsShareholder",
      "outputs": [],
      "stateMutability": "nonpayable",
      "type": "function"
    },
    {
      "inputs": [
        {
          "internalType": "address",
          "name": "_shareholder",
          "type": "address"
        }
      ],
      "name": "approveShareholder",
      "outputs": [],
      "stateMutability": "nonpayable",
      "type": "function"
    },
    {
      "inputs": [
        {
          "internalType": "address",
          "name": "_shareholder",
          "type": "address"
        }
      ],
      "name": "disApproveShareholder",
      "outputs": [],
      "stateMutability": "nonpayable",
      "type": "function"
    },
    {
      "inputs": [
        {
          "internalType": "address",
          "name": "_shareholder",
          "type": "address"
        }
      ],
      "name": "isRegisteredShareholder",
      "outputs": [
        {
          "internalType": "bool",
          "name": "",
          "type": "bool"
        }
      ],
      "stateMutability": "view",
      "type": "function",
      "constant": true
    },
    {
      "inputs": [
        {
          "internalType": "address",
          "name": "_shareholder",
          "type": "address"
        }
      ],
      "name": "isApprovedShareholder",
      "outputs": [
        {
          "internalType": "bool",
          "name": "",
          "type": "bool"
        }
      ],
      "stateMutability": "view",
      "type": "function",
      "constant": true
    },
    {
      "inputs": [],
      "name": "getShareholderAddresses",
      "outputs": [
        {
          "internalType": "address[]",
          "name": "",
          "type": "address[]"
        }
      ],
      "stateMutability": "view",
      "type": "function",
      "constant": true
    },
    {
      "inputs": [],
      "name": "getShareholdersCount",
      "outputs": [
        {
          "internalType": "uint256",
          "name": "",
          "type": "uint256"
        }
      ],
      "stateMutability": "view",
      "type": "function",
      "constant": true
    },
    {
      "inputs": [
        {
          "internalType": "address",
          "name": "_address",
          "type": "address"
        }
      ],
      "name": "getShareholder",
      "outputs": [
        {
          "internalType": "address",
          "name": "",
          "type": "address"
        },
        {
          "internalType": "string",
          "name": "",
          "type": "string"
        },
        {
          "internalType": "uint256",
          "name": "",
          "type": "uint256"
        },
        {
          "internalType": "bool",
          "name": "",
          "type": "bool"
        },
        {
          "internalType": "bool",
          "name": "",
          "type": "bool"
        },
        {
          "internalType": "string",
          "name": "",
          "type": "string"
        }
      ],
      "stateMutability": "view",
      "type": "function",
      "constant": true
    },
    {
      "inputs": [
        {
          "internalType": "address",
          "name": "_shareholderAddress",
          "type": "address"
        },
        {
          "internalType": "string",
          "name": "_name",
          "type": "string"
        },
        {
          "internalType": "uint256",
          "name": "_newShares",
          "type": "uint256"
        },
        {
          "internalType": "string",
          "name": "_newHash",
          "type": "string"
        }
      ],
      "name": "editShareholder",
      "outputs": [],
      "stateMutability": "nonpayable",
      "type": "function"
    },
    {
      "inputs": [
        {
          "internalType": "address",
          "name": "shareholder",
          "type": "address"
        }
      ],
      "name": "removeShareholder",
      "outputs": [],
      "stateMutability": "nonpayable",
      "type": "function"
    },
    {
      "inputs": [
        {
          "internalType": "string",
          "name": "_proposalId",
          "type": "string"
        },
        {
          "internalType": "string",
          "name": "_name",
          "type": "string"
        },
        {
          "internalType": "string",
          "name": "_description",
          "type": "string"
        },
        {
          "internalType": "string",
          "name": "_hash",
          "type": "string"
        },
        {
          "internalType": "uint256",
          "name": "_endTime",
          "type": "uint256"
        }
      ],
      "name": "createProposal",
      "outputs": [],
      "stateMutability": "nonpayable",
      "type": "function"
    },
    {
      "inputs": [],
      "name": "getProposalIds",
      "outputs": [
        {
          "internalType": "string[]",
          "name": "",
          "type": "string[]"
        }
      ],
      "stateMutability": "view",
      "type": "function",
      "constant": true
    },
    {
      "inputs": [
        {
          "internalType": "string",
          "name": "_proposalId",
          "type": "string"
        }
      ],
      "name": "closeProposal",
      "outputs": [],
      "stateMutability": "nonpayable",
      "type": "function"
    },
    {
      "inputs": [
        {
          "internalType": "string",
          "name": "_proposalId",
          "type": "string"
        }
      ],
      "name": "getProposal",
      "outputs": [
        {
          "internalType": "string",
          "name": "",
          "type": "string"
        },
        {
          "internalType": "string",
          "name": "",
          "type": "string"
        },
        {
          "internalType": "string",
          "name": "",
          "type": "string"
        },
        {
          "internalType": "uint256",
          "name": "",
          "type": "uint256"
        },
        {
          "internalType": "uint256",
          "name": "",
          "type": "uint256"
        },
        {
          "internalType": "uint256",
          "name": "",
          "type": "uint256"
        },
        {
          "internalType": "string",
          "name": "",
          "type": "string"
        }
      ],
      "stateMutability": "view",
      "type": "function",
      "constant": true
    },
    {
      "inputs": [
        {
          "internalType": "string",
          "name": "_proposalId",
          "type": "string"
        },
        {
          "internalType": "string",
          "name": "_newName",
          "type": "string"
        },
        {
          "internalType": "string",
          "name": "_newDescription",
          "type": "string"
        },
        {
          "internalType": "uint256",
          "name": "_endTime",
          "type": "uint256"
        },
        {
          "internalType": "string",
          "name": "_newHash",
          "type": "string"
        }
      ],
      "name": "editProposal",
      "outputs": [],
      "stateMutability": "nonpayable",
      "type": "function"
    },
    {
      "inputs": [
        {
          "internalType": "string",
          "name": "_proposalId",
          "type": "string"
        }
      ],
      "name": "deleteProposal",
      "outputs": [],
      "stateMutability": "nonpayable",
      "type": "function"
    },
    {
      "inputs": [
        {
          "internalType": "string",
          "name": "_proposalId",
          "type": "string"
        },
        {
          "internalType": "bool",
          "name": "_inSupport",
          "type": "bool"
        }
      ],
      "name": "vote",
      "outputs": [],
      "stateMutability": "nonpayable",
      "type": "function"
    },
    {
      "inputs": [
        {
          "internalType": "string",
          "name": "_proposalId",
          "type": "string"
        }
      ],
      "name": "checkWinner",
      "outputs": [
        {
          "internalType": "string",
          "name": "",
          "type": "string"
        }
      ],
      "stateMutability": "view",
      "type": "function",
      "constant": true
    },
    {
      "inputs": [
        {
          "internalType": "address",
          "name": "_shareholder",
          "type": "address"
        },
        {
          "internalType": "string",
          "name": "_proposalId",
          "type": "string"
        }
      ],
      "name": "getVoteStatus",
      "outputs": [
        {
          "internalType": "bool",
          "name": "hasVoted",
          "type": "bool"
        },
        {
          "internalType": "bool",
          "name": "inSupport",
          "type": "bool"
        }
      ],
      "stateMutability": "view",
      "type": "function",
      "constant": true
    }
  ],
  "bytecode": "0x608060405234801561001057600080fd5b50600080546001600160a01b031916331781556001556131a8806100356000396000f3fe608060405234801561001057600080fd5b50600436106101d95760003560e01c80636b4ce18611610104578063a9bb2dea116100a2578063df1b3cab11610071578063df1b3cab1461047c578063f73f0d65146104b0578063fec2d9a3146104dc578063ffa0d2a41461050657600080fd5b8063a9bb2dea1461042a578063aad5a04c1461043d578063b89a73cb14610450578063da35c6641461047357600080fd5b80638da5cb5b116100de5780638da5cb5b146103de5780639b644a23146103f15780639babdad614610404578063a04ca2f51461041757600080fd5b80636b4ce1861461038f578063893d20e8146103ba5780638a638dbb146103cb57600080fd5b806327d3410c1161017c5780635c2930ad1161014b5780635c2930ad1461032b5780635c3184dc1461033e5780636154274d1461036957806361e1d6a51461037c57600080fd5b806327d3410c146102d05780632c9790f1146102e357806340ba1b1e1461030357806357fad2da1461031857600080fd5b806317e75a0a116101b857806317e75a0a1461023f578063227d9f651461024757806325d3a09d1461026c578063261a323e1461029257600080fd5b806239b55c146101de57806301a6fa2c146101fc57806311eb78ab14610211575b600080fd5b6101e661052e565b6040516101f39190612e6c565b60405180910390f35b61020f61020a366004612a70565b610590565b005b61023161021f366004612a70565b60046020526000908152604090205481565b6040519081526020016101f3565b600354610231565b61025a610255366004612a70565b610657565b6040516101f396959493929190612e13565b61027f61027a366004612b58565b6107d4565b6040516101f39796959493929190612f5b565b6102c06102a0366004612b58565b805160208183018101805160098252928201919093012091525460ff1681565b60405190151581526020016101f3565b61020f6102de366004612b93565b610b10565b6102f66102f1366004612b58565b610eba565b6040516101f39190612f1a565b61030b611025565b6040516101f39190612eb9565b61020f610326366004612c97565b6110fe565b61025a610339366004612a70565b6112b7565b61035161034c366004612db3565b611412565b6040516001600160a01b0390911681526020016101f3565b61020f610377366004612b58565b61143c565b61020f61038a366004612add565b611741565b61023161039d366004612b58565b805160208183018101805160088252928201919093012091525481565b6000546001600160a01b0316610351565b61020f6103d9366004612be7565b6118e9565b600054610351906001600160a01b031681565b6102f66103ff366004612db3565b611def565b61020f610412366004612a70565b611e9b565b61020f610425366004612d49565b6120a1565b61020f610438366004612b58565b612345565b61020f61044b366004612a70565b612419565b6102c061045e366004612a70565b60056020526000908152604090205460ff1681565b61023160015481565b6102c061048a366004612a70565b6001600160a01b0316600090815260026020526040902060030154610100900460ff1690565b6102c06104be366004612a70565b6001600160a01b031660009081526005602052604090205460ff1690565b6104ef6104ea366004612a91565b6124d3565b6040805192151583529015156020830152016101f3565b610519610514366004612b58565b612571565b6040516101f399989796959493929190612fc8565b6060600380548060200260200160405190810160405280929190818152602001828054801561058657602002820191906000526020600020905b81546001600160a01b03168152600190910190602001808311610568575b5050505050905090565b6000546001600160a01b031633146105c35760405162461bcd60e51b81526004016105ba90613049565b60405180910390fd5b6001600160a01b03811660009081526002602052604090206003015460ff1661062e5760405162461bcd60e51b815260206004820152601d60248201527f4e6f7420612072656769737465726564207368617265686f6c6465722e00000060448201526064016105ba565b6001600160a01b03166000908152600260205260409020600301805461ff001916610100179055565b6001600160a01b0380821660009081526002602081905260408220805491810154600382015460018301805495966060968896879687968a969290941694939260ff80841693610100900416916004019085906106b3906130f6565b80601f01602080910402602001604051908101604052809291908181526020018280546106df906130f6565b801561072c5780601f106107015761010080835404028352916020019161072c565b820191906000526020600020905b81548152906001019060200180831161070f57829003601f168201915b5050505050945080805461073f906130f6565b80601f016020809104026020016040519081016040528092919081815260200182805461076b906130f6565b80156107b85780601f1061078d576101008083540402835291602001916107b8565b820191906000526020600020905b81548152906001019060200180831161079b57829003601f168201915b5050505050905095509550955095509550955091939550919395565b6060806060600080600060606006886040516107f09190612df7565b9081526040519081900360200181209060069061080e908b90612df7565b908152602001604051809103902060010160068a60405161082f9190612df7565b908152602001604051809103902060020160068b6040516108509190612df7565b90815260200160405180910390206004015460068c6040516108729190612df7565b90815260200160405180910390206005015460068d6040516108949190612df7565b90815260200160405180910390206006015460068e6040516108b69190612df7565b90815260200160405180910390206008018680546108d3906130f6565b80601f01602080910402602001604051908101604052809291908181526020018280546108ff906130f6565b801561094c5780601f106109215761010080835404028352916020019161094c565b820191906000526020600020905b81548152906001019060200180831161092f57829003601f168201915b5050505050965085805461095f906130f6565b80601f016020809104026020016040519081016040528092919081815260200182805461098b906130f6565b80156109d85780601f106109ad576101008083540402835291602001916109d8565b820191906000526020600020905b8154815290600101906020018083116109bb57829003601f168201915b505050505095508480546109eb906130f6565b80601f0160208091040260200160405190810160405280929190818152602001828054610a17906130f6565b8015610a645780601f10610a3957610100808354040283529160200191610a64565b820191906000526020600020905b815481529060010190602001808311610a4757829003601f168201915b50505050509450808054610a77906130f6565b80601f0160208091040260200160405190810160405280929190818152602001828054610aa3906130f6565b8015610af05780601f10610ac557610100808354040283529160200191610af0565b820191906000526020600020905b815481529060010190602001808311610ad357829003601f168201915b505050505090509650965096509650965096509650919395979092949650565b336000908152600260208190526040909120015415801590610b49575033600090815260026020526040902060030154610100900460ff165b610ba45760405162461bcd60e51b815260206004820152602660248201527f53656e646572206973206e6f7420616e20617070726f7665642073686172656860448201526537b63232b91760d11b60648201526084016105ba565b3360009081526005602052604090205460ff16610c135760405162461bcd60e51b815260206004820152602760248201527f41646472657373206973206e6f7420612072656769737465726564207368617260448201526632b437b63232b960c91b60648201526084016105ba565b600682604051610c239190612df7565b9081526040519081900360200190206007015460ff16610c915760405162461bcd60e51b815260206004820152602360248201527f566f74696e6720697320636c6f73656420666f7220746869732070726f706f7360448201526230b61760e91b60648201526084016105ba565b600682604051610ca19190612df7565b9081526040805160209281900383019020336000908152600990910190925290205460ff1615610d2b5760405162461bcd60e51b815260206004820152602f60248201527f5368617265686f6c6465722068617320616c726561647920766f746564206f6e60448201526e103a3434b990383937b837b9b0b61760891b60648201526084016105ba565b600682604051610d3b9190612df7565b908152602001604051809103902060030154421115610d9c5760405162461bcd60e51b815260206004820152601c60248201527f566f74696e67206f6e2050726f706f73616c2068617320456e6465640000000060448201526064016105ba565b33600090815260026020819052604090912001548115610df25780600684604051610dc79190612df7565b90815260200160405180910390206005016000828254610de79190613080565b90915550610e299050565b80600684604051610e039190612df7565b90815260200160405180910390206006016000828254610e239190613080565b90915550505b6001600684604051610e3b9190612df7565b908152604080516020928190038301812033600090815260099091019093529120805460ff191692151592909217909155610e77908490612df7565b60405190819003812083151582529033907fb052e8942270b13d19dcbd6168f7d1aa26b765fb16926b0d42dffffae6d3715b9060200160405180910390a3505050565b6060600682604051610ecc9190612df7565b9081526040519081900360200190206007015460ff1615610f3f5760405162461bcd60e51b815260206004820152602760248201527f566f74696e67206973207374696c6c206f70656e20666f72207468697320707260448201526637b837b9b0b61760c91b60648201526084016105ba565b6000600683604051610f519190612df7565b90815260200160405180910390206005015490506000600684604051610f779190612df7565b908152602001604051809103902060060154905080821115610fc157505060408051808201909152600f81526e141c9bdc1bdcd85b081c185cdcd959608a1b602082015292915050565b81811115610ff9575050604080518082019091526011815270141c9bdc1bdcd85b081c995a9958dd1959607a1b602082015292915050565b505060408051808201909152600d81526c141c9bdc1bdcd85b081d1a5959609a1b602082015292915050565b60606007805480602002602001604051908101604052809291908181526020016000905b828210156110f5578382906000526020600020018054611068906130f6565b80601f0160208091040260200160405190810160405280929190818152602001828054611094906130f6565b80156110e15780601f106110b6576101008083540402835291602001916110e1565b820191906000526020600020905b8154815290600101906020018083116110c457829003601f168201915b505050505081526020019060010190611049565b50505050905090565b6000546001600160a01b031633146111285760405162461bcd60e51b81526004016105ba90613049565b6009856040516111389190612df7565b9081526040519081900360200190205460ff1661118f5760405162461bcd60e51b8152602060048201526015602482015274141c9bdc1bdcd85b081251081b9bdd08199bdd5b99605a1b60448201526064016105ba565b836006866040516111a09190612df7565b908152602001604051809103902060010190805190602001906111c49291906128f7565b50826006866040516111d69190612df7565b908152602001604051809103902060020190805190602001906111fa9291906128f7565b508160068660405161120c9190612df7565b908152602001604051809103902060030181905550806006866040516112329190612df7565b908152602001604051809103902060080190805190602001906112569291906128f7565b50846040516112659190612df7565b6040518091039020336001600160a01b03167f6f5c225f5325f0133b129e2bbdcac22a8873855e27c93118ff4e4eb0d92bfc1386866040516112a8929190612f2d565b60405180910390a35050505050565b600260205260009081526040902080546001820180546001600160a01b0390921692916112e3906130f6565b80601f016020809104026020016040519081016040528092919081815260200182805461130f906130f6565b801561135c5780601f106113315761010080835404028352916020019161135c565b820191906000526020600020905b81548152906001019060200180831161133f57829003601f168201915b505050600284015460038501546004860180549596929560ff808416965061010090930490921693509061138f906130f6565b80601f01602080910402602001604051908101604052809291908181526020018280546113bb906130f6565b80156114085780601f106113dd57610100808354040283529160200191611408565b820191906000526020600020905b8154815290600101906020018083116113eb57829003601f168201915b5050505050905086565b6003818154811061142257600080fd5b6000918252602090912001546001600160a01b0316905081565b6000546001600160a01b031633146114665760405162461bcd60e51b81526004016105ba90613049565b6009816040516114769190612df7565b9081526040519081900360200190205460ff166114cd5760405162461bcd60e51b8152602060048201526015602482015274141c9bdc1bdcd85b081251081b9bdd08199bdd5b99605a1b60448201526064016105ba565b6006816040516114dd9190612df7565b90815260405190819003602001902060006114f8828261297b565b61150660018301600061297b565b61151460028301600061297b565b60006003830181905560048301819055600583018190556006830181905560078301805460ff1916905561154c90600884019061297b565b505060006008826040516115609190612df7565b9081526020016040518091039020549050600060016007805490506115859190613098565b90506000600782815481106115aa57634e487b7160e01b600052603260045260246000fd5b9060005260206000200180546115bf906130f6565b80601f01602080910402602001604051908101604052809291908181526020018280546115eb906130f6565b80156116385780601f1061160d57610100808354040283529160200191611638565b820191906000526020600020905b81548152906001019060200180831161161b57829003601f168201915b50505050509050806007848154811061166157634e487b7160e01b600052603260045260246000fd5b90600052602060002001908051906020019061167e9291906128f7565b50826008826040516116909190612df7565b9081526040519081900360200190205560078054806116bf57634e487b7160e01b600052603160045260246000fd5b6001900381819060005260206000200160006116db919061297b565b90556008846040516116ed9190612df7565b90815260200160405180910390206000905560098460405161170f9190612df7565b908152604051908190036020019020805460ff1916905560018054906000611736836130df565b919050555050505050565b6001600160a01b03841660009081526005602052604090205460ff166117a95760405162461bcd60e51b815260206004820152601a60248201527f5368617265686f6c64657220646f6573206e6f7420657869737400000000000060448201526064016105ba565b60006117b36127ef565b905060006117c08661286f565b905060006117ce8284613098565b905060646117dc8683613080565b111561182a5760405162461bcd60e51b815260206004820152601a60248201527f4572726f7220696e205368617265732050657263656e7461676500000000000060448201526064016105ba565b6001600160a01b03871660009081526002602090815260409091208751611859926001909201918901906128f7565b506001600160a01b038716600090815260026020818152604090922090810187905560038101805461ff0019169055855161189c926004909201918701906128f7565b50866001600160a01b03167f3da07ad44364c3500691406aa1f8547ae5ffaf81f13fdd5616ebe66977060c0c866040516118d891815260200190565b60405180910390a250505050505050565b6000546001600160a01b031633146119135760405162461bcd60e51b81526004016105ba90613049565b60008451116119645760405162461bcd60e51b815260206004820152601e60248201527f50726f706f73616c206e616d652063616e6e6f7420626520656d7074792e000060448201526064016105ba565b60008351116119c35760405162461bcd60e51b815260206004820152602560248201527f50726f706f73616c206465736372697074696f6e2063616e6e6f74206265206560448201526436b83a3c9760d91b60648201526084016105ba565b60006119cd6127ef565b90506009866040516119df9190612df7565b9081526040519081900360200190205460ff1615611a3f5760405162461bcd60e51b815260206004820152601a60248201527f50726f706f73616c20494420616c72656164792065786973747300000000000060448201526064016105ba565b6000546001600160a01b0316331480611a6f575033600090815260026020526040902060030154610100900460ff165b611ad15760405162461bcd60e51b815260206004820152602d60248201527f43616c6c6572206973206e6f7420617574686f72697a656420746f206372656160448201526c3a3290383937b837b9b0b6399760991b60648201526084016105ba565b428211611b2b5760405162461bcd60e51b815260206004820152602260248201527f54686520456e642074696d652063616e6e6f7420626520696e207468652050616044820152611cdd60f21b60648201526084016105ba565b85600687604051611b3c9190612df7565b90815260200160405180910390206000019080519060200190611b609291906128f7565b5084600687604051611b729190612df7565b90815260200160405180910390206001019080519060200190611b969291906128f7565b5083600687604051611ba89190612df7565b90815260200160405180910390206002019080519060200190611bcc9291906128f7565b5081600687604051611bde9190612df7565b90815260200160405180910390206003018190555080600687604051611c049190612df7565b9081526020016040518091039020600401819055506000600687604051611c2b9190612df7565b9081526020016040518091039020600501819055506000600687604051611c529190612df7565b9081526020016040518091039020600601819055506001600687604051611c799190612df7565b908152604051908190036020018120600701805492151560ff19909316929092179091558390600690611cad908990612df7565b90815260200160405180910390206008019080519060200190611cd19291906128f7565b50600780546001810182556000919091528651611d15917fa66cc928b5edb82af9bd49922954155ab7b0942694bea4ce44661d9a8736c688019060208901906128f7565b50600754611d2590600190613098565b600887604051611d359190612df7565b9081526020016040518091039020819055506001600987604051611d599190612df7565b908152604051908190036020019020805491151560ff1990921691909117905560018054906000611d898361312b565b919050555085604051611d9c9190612df7565b6040518091039020336001600160a01b03167ffc41d137e29f020ac35d7ace8c1b3ec3e38ae2427d086a5ec0c7429425a8b2cc8787604051611ddf929190612f2d565b60405180910390a3505050505050565b60078181548110611dff57600080fd5b906000526020600020016000915090508054611e1a906130f6565b80601f0160208091040260200160405190810160405280929190818152602001828054611e46906130f6565b8015611e935780601f10611e6857610100808354040283529160200191611e93565b820191906000526020600020905b815481529060010190602001808311611e7657829003601f168201915b505050505081565b6001600160a01b03811660009081526005602052604090205460ff16611f035760405162461bcd60e51b815260206004820152601c60248201527f41646472657373206973206e6f742061207368617265686f6c6465720000000060448201526064016105ba565b6001600160a01b038116600090815260046020526040812054600354909190611f2e90600190613098565b905080821015611fd357600060038281548110611f5b57634e487b7160e01b600052603260045260246000fd5b600091825260209091200154600380546001600160a01b039092169250829185908110611f9857634e487b7160e01b600052603260045260246000fd5b600091825260208083209190910180546001600160a01b0319166001600160a01b039485161790559290911681526004909152604090208290555b6001600160a01b038316600090815260026020526040812080546001600160a01b031916815590612007600183018261297b565b60006002830181905560038301805461ffff1916905561202b90600484019061297b565b5050600380548061204c57634e487b7160e01b600052603160045260246000fd5b60008281526020808220830160001990810180546001600160a01b03191690559092019092556001600160a01b03949094168152600484526040808220829055600590945292909220805460ff191690555050565b60648211156120fe5760405162461bcd60e51b8152602060048201526024808201527f5368617265732070657263656e746167652063616e6e6f7420657863656564206044820152631898181760e11b60648201526084016105ba565b3360009081526005602052604090205460ff161561215e5760405162461bcd60e51b815260206004820181905260248201527f4164647265737320697320616c72656164792061207368617265686f6c64657260448201526064016105ba565b60006121686127ef565b905060646121768483613080565b11156121c45760405162461bcd60e51b815260206004820152601960248201527f4572726f7220696e2053686172652050657263656e746167650000000000000060448201526064016105ba565b6040805160c08101825233808252602080830188815283850188905260016060850181905260006080860181905260a086018990529384526002835294909220835181546001600160a01b0319166001600160a01b0390911617815591518051939492936122399385019291909101906128f7565b50604082015160028201556060820151600382018054608085015115156101000261ff00199315159390931661ffff199091161791909117905560a0820151805161228e9160048401916020909101906128f7565b5050600380546001818101835560008390527fc2575a0e9e593c00f959f8c92f12db2869c3395a3b0502d05e2516446f71f85b90910180546001600160a01b0319163317905590546122e09250613098565b3360008181526004602090815260408083209490945560059052829020805460ff1916600117905590517f831f95a88d3a8b775960c07ac45472bf09fb6e85901432faa445bdfd7aab7aa790612337908790612f1a565b60405180910390a250505050565b6000546001600160a01b0316331461236f5760405162461bcd60e51b81526004016105ba90613049565b60068160405161237f9190612df7565b9081526040519081900360200190206007015460ff166123e15760405162461bcd60e51b815260206004820152601b60248201527f50726f706f73616c20697320616c726561647920636c6f7365642e000000000060448201526064016105ba565b60006006826040516123f39190612df7565b908152604051908190036020019020600701805491151560ff1990921691909117905550565b6000546001600160a01b031633146124435760405162461bcd60e51b81526004016105ba90613049565b6001600160a01b03811660009081526002602052604090206003015460ff166124ae5760405162461bcd60e51b815260206004820152601d60248201527f4e6f7420612072656769737465726564207368617265686f6c6465722e00000060448201526064016105ba565b6001600160a01b03166000908152600260205260409020600301805461ff0019169055565b6000806006836040516124e69190612df7565b90815260408051602092819003830190206001600160a01b0387166000908152600990910190925290205460ff16915081612522576000612568565b6006836040516125329190612df7565b9081526020016040518091039020600601546006846040516125549190612df7565b908152602001604051809103902060050154115b90509250929050565b8051602081830181018051600682529282019190930120915280548190612597906130f6565b80601f01602080910402602001604051908101604052809291908181526020018280546125c3906130f6565b80156126105780601f106125e557610100808354040283529160200191612610565b820191906000526020600020905b8154815290600101906020018083116125f357829003601f168201915b505050505090806001018054612625906130f6565b80601f0160208091040260200160405190810160405280929190818152602001828054612651906130f6565b801561269e5780601f106126735761010080835404028352916020019161269e565b820191906000526020600020905b81548152906001019060200180831161268157829003601f168201915b5050505050908060020180546126b3906130f6565b80601f01602080910402602001604051908101604052809291908181526020018280546126df906130f6565b801561272c5780601f106127015761010080835404028352916020019161272c565b820191906000526020600020905b81548152906001019060200180831161270f57829003601f168201915b5050505050908060030154908060040154908060050154908060060154908060070160009054906101000a900460ff169080600801805461276c906130f6565b80601f0160208091040260200160405190810160405280929190818152602001828054612798906130f6565b80156127e55780601f106127ba576101008083540402835291602001916127e5565b820191906000526020600020905b8154815290600101906020018083116127c857829003601f168201915b5050505050905089565b600080805b60035481101561286957600260006003838154811061282357634e487b7160e01b600052603260045260246000fd5b60009182526020808320909101546001600160a01b031683528201929092526040019020600201546128559083613080565b9150806128618161312b565b9150506127f4565b50919050565b6001600160a01b03811660009081526005602052604081205460ff166128d75760405162461bcd60e51b815260206004820152601c60248201527f41646472657373206973206e6f742061207368617265686f6c6465720000000060448201526064016105ba565b506001600160a01b03166000908152600260208190526040909120015490565b828054612903906130f6565b90600052602060002090601f016020900481019282612925576000855561296b565b82601f1061293e57805160ff191683800117855561296b565b8280016001018555821561296b579182015b8281111561296b578251825591602001919060010190612950565b506129779291506129b8565b5090565b508054612987906130f6565b6000825580601f10612997575050565b601f0160209004906000526020600020908101906129b591906129b8565b50565b5b8082111561297757600081556001016129b9565b80356001600160a01b03811681146129e457600080fd5b919050565b600082601f8301126129f9578081fd5b813567ffffffffffffffff80821115612a1457612a1461315c565b604051601f8301601f19908116603f01168101908282118183101715612a3c57612a3c61315c565b81604052838152866020858801011115612a54578485fd5b8360208701602083013792830160200193909352509392505050565b600060208284031215612a81578081fd5b612a8a826129cd565b9392505050565b60008060408385031215612aa3578081fd5b612aac836129cd565b9150602083013567ffffffffffffffff811115612ac7578182fd5b612ad3858286016129e9565b9150509250929050565b60008060008060808587031215612af2578182fd5b612afb856129cd565b9350602085013567ffffffffffffffff80821115612b17578384fd5b612b23888389016129e9565b9450604087013593506060870135915080821115612b3f578283fd5b50612b4c878288016129e9565b91505092959194509250565b600060208284031215612b69578081fd5b813567ffffffffffffffff811115612b7f578182fd5b612b8b848285016129e9565b949350505050565b60008060408385031215612ba5578182fd5b823567ffffffffffffffff811115612bbb578283fd5b612bc7858286016129e9565b92505060208301358015158114612bdc578182fd5b809150509250929050565b600080600080600060a08688031215612bfe578081fd5b853567ffffffffffffffff80821115612c15578283fd5b612c2189838a016129e9565b96506020880135915080821115612c36578283fd5b612c4289838a016129e9565b95506040880135915080821115612c57578283fd5b612c6389838a016129e9565b94506060880135915080821115612c78578283fd5b50612c85888289016129e9565b95989497509295608001359392505050565b600080600080600060a08688031215612cae578081fd5b853567ffffffffffffffff80821115612cc5578283fd5b612cd189838a016129e9565b96506020880135915080821115612ce6578283fd5b612cf289838a016129e9565b95506040880135915080821115612d07578283fd5b612d1389838a016129e9565b9450606088013593506080880135915080821115612d2f578283fd5b50612d3c888289016129e9565b9150509295509295909350565b600080600060608486031215612d5d578283fd5b833567ffffffffffffffff80821115612d74578485fd5b612d80878388016129e9565b9450602086013593506040860135915080821115612d9c578283fd5b50612da9868287016129e9565b9150509250925092565b600060208284031215612dc4578081fd5b5035919050565b60008151808452612de38160208601602086016130af565b601f01601f19169290920160200192915050565b60008251612e098184602087016130af565b9190910192915050565b6001600160a01b038716815260c060208201819052600090612e3790830188612dcb565b8660408401528515156060840152841515608084015282810360a0840152612e5f8185612dcb565b9998505050505050505050565b6020808252825182820181905260009190848201906040850190845b81811015612ead5783516001600160a01b031683529284019291840191600101612e88565b50909695505050505050565b6000602080830181845280855180835260408601915060408160051b8701019250838701855b82811015612f0d57603f19888603018452612efb858351612dcb565b94509285019290850190600101612edf565b5092979650505050505050565b602081526000612a8a6020830184612dcb565b604081526000612f406040830185612dcb565b8281036020840152612f528185612dcb565b95945050505050565b60e081526000612f6e60e083018a612dcb565b8281036020840152612f80818a612dcb565b90508281036040840152612f948189612dcb565b90508660608401528560808401528460a084015282810360c0840152612fba8185612dcb565b9a9950505050505050505050565b6000610120808352612fdc8184018d612dcb565b90508281036020840152612ff0818c612dcb565b90508281036040840152613004818b612dcb565b90508860608401528760808401528660a08401528560c084015284151560e08401528281036101008401526130398185612dcb565b9c9b505050505050505050505050565b60208082526018908201527f43616c6c6572206973206e6f7420746865206f776e65722e0000000000000000604082015260600190565b6000821982111561309357613093613146565b500190565b6000828210156130aa576130aa613146565b500390565b60005b838110156130ca5781810151838201526020016130b2565b838111156130d9576000848401525b50505050565b6000816130ee576130ee613146565b506000190190565b600181811c9082168061310a57607f821691505b6020821081141561286957634e487b7160e01b600052602260045260246000fd5b600060001982141561313f5761313f613146565b5060010190565b634e487b7160e01b600052601160045260246000fd5b634e487b7160e01b600052604160045260246000fdfea2646970667358221220f21ad94132e452c18417ff99a11262a558dc0a15d8fa3c3304c0134d8161ef2a64736f6c63430008040033",
  "immutableReferences": {},
  "source": "// SPDX-License-Identifier: MIT\r\npragma solidity ^0.8.4;\r\n\r\ncontract ShareVoting {\r\n    address public owner;\r\n    uint256 public proposalCount;\r\n\r\n    struct Shareholder {\r\n        address shareholderAddresses;\r\n        string name;\r\n        uint256 sharesPercentage;\r\n        bool isRegistered;\r\n        bool approved;\r\n        string ipfsHash;\r\n    }\r\n\r\n    mapping(address => Shareholder) public shareholders;\r\n    address[] public shareholderAddresses;\r\n    mapping(address => uint) public shareIndexMap;\r\n    mapping(address => bool) public isShareholder;\r\n\r\n    struct Proposal {\r\n        string proposalId;\r\n        string name;\r\n        string description;\r\n        uint256 endTime;\r\n        uint256 totalSharesPercentage;\r\n        uint256 forVotesPercentage;\r\n        uint256 againstVotesPercentage;\r\n        bool open;\r\n        string ipfsHash;\r\n        mapping(address => bool) voted;\r\n    }\r\n\r\n    mapping(string => Proposal) public proposals;\r\n    string[] public proposalIds;\r\n    mapping(string => uint) public indexMap;\r\n    mapping(string => bool) public exists;\r\n\r\n    modifier onlyOwner() {\r\n        require(msg.sender == owner, \"Caller is not the owner.\");\r\n        _;\r\n    }\r\n\r\n    modifier onlyShareholder() {\r\n        require(\r\n            shareholders[msg.sender].sharesPercentage > 0 &&\r\n                shareholders[msg.sender].approved,\r\n            \"Sender is not an approved shareholder.\"\r\n        );\r\n        _;\r\n    }\r\n\r\n    event Voted(\r\n        address indexed voter,\r\n        string indexed proposalId,\r\n        bool inSupport\r\n    );\r\n\r\n    event ProposalCreated(\r\n        address indexed creator,\r\n        string indexed proposalId,\r\n        string name,\r\n        string description\r\n    );\r\n\r\n    event ShareholderRegistered(address indexed creator, string name);\r\n\r\n    event ShareholderEdited(address indexed creator, uint256 shares);\r\n\r\n    event ProposalEdited(\r\n        address indexed creator,\r\n        string indexed proposalId,\r\n        string name,\r\n        string description\r\n    );\r\n\r\n    constructor() {\r\n        // Initilizing default values\r\n        owner = msg.sender;\r\n        proposalCount = 0;\r\n        // boardNomineeCount = 0;\r\n        // shareHolderCount = 0;\r\n        // start = false;\r\n        // end = false;\r\n    }\r\n\r\n    function getOwner() public view returns (address) {\r\n        // Returns account address used to deploy contract (i.e. Owner)\r\n        return owner;\r\n    }\r\n\r\n    function registerSelfAsShareholder(\r\n        string memory _name,\r\n        uint256 _sharesPercentage,\r\n        string memory _hash\r\n    ) external {\r\n        require(\r\n            _sharesPercentage <= 100,\r\n            \"Shares percentage cannot exceed 100.\"\r\n        );\r\n\r\n        require(!isShareholder[msg.sender], \"Address is already a shareholder\");\r\n\r\n        uint256 totalSharesPercentage = getTotalSharesPercentage();\r\n\r\n        require(\r\n            (totalSharesPercentage + _sharesPercentage) <= 100,\r\n            \"Error in Share Percentage\"\r\n        );\r\n\r\n        shareholders[msg.sender] = Shareholder(\r\n            msg.sender,\r\n            _name,\r\n            _sharesPercentage,\r\n            true,\r\n            false,\r\n            _hash\r\n        );\r\n        shareholderAddresses.push(msg.sender);\r\n        shareIndexMap[msg.sender] = shareholderAddresses.length - 1;\r\n        isShareholder[msg.sender] = true;\r\n\r\n        emit ShareholderRegistered(msg.sender, _name);\r\n    }\r\n\r\n    function approveShareholder(address _shareholder) external onlyOwner {\r\n        require(\r\n            shareholders[_shareholder].isRegistered,\r\n            \"Not a registered shareholder.\"\r\n        );\r\n        shareholders[_shareholder].approved = true;\r\n    }\r\n\r\n    function disApproveShareholder(address _shareholder) external onlyOwner {\r\n        require(\r\n            shareholders[_shareholder].isRegistered,\r\n            \"Not a registered shareholder.\"\r\n        );\r\n        shareholders[_shareholder].approved = false;\r\n    }\r\n\r\n    function isRegisteredShareholder(\r\n        address _shareholder\r\n    ) external view returns (bool) {\r\n        return isShareholder[_shareholder];\r\n    }\r\n\r\n    function isApprovedShareholder(\r\n        address _shareholder\r\n    ) external view returns (bool) {\r\n        return shareholders[_shareholder].approved;\r\n    }\r\n\r\n    function getShareholderAddresses() public view returns (address[] memory) {\r\n        return shareholderAddresses;\r\n    }\r\n\r\n    function getShareholdersCount() external view returns (uint256) {\r\n        return shareholderAddresses.length;\r\n    }\r\n\r\n    function getShareholder(\r\n        address _address\r\n    )\r\n        external\r\n        view\r\n        returns (address, string memory, uint256, bool, bool, string memory)\r\n    {\r\n        return (\r\n            shareholders[_address].shareholderAddresses,\r\n            shareholders[_address].name,\r\n            shareholders[_address].sharesPercentage,\r\n            shareholders[_address].isRegistered,\r\n            shareholders[_address].approved,\r\n            shareholders[_address].ipfsHash\r\n        );\r\n    }\r\n\r\n    // Edit shareholder details after registration\r\n    function editShareholder(\r\n        address _shareholderAddress,\r\n        string memory _name,\r\n        uint256 _newShares,\r\n        string memory _newHash\r\n    ) external {\r\n        require(\r\n            isShareholder[_shareholderAddress],\r\n            \"Shareholder does not exist\"\r\n        );\r\n\r\n        uint256 totalSharesPercentage = getTotalSharesPercentage();\r\n        uint256 previousSharesPercentage = getShareholderShares(\r\n            _shareholderAddress\r\n        );\r\n\r\n        uint256 total = totalSharesPercentage - previousSharesPercentage;\r\n\r\n        require((total + _newShares) <= 100, \"Error in Shares Percentage\");\r\n\r\n        shareholders[_shareholderAddress].name = _name;\r\n        shareholders[_shareholderAddress].sharesPercentage = _newShares;\r\n        shareholders[_shareholderAddress].approved = false;\r\n        shareholders[_shareholderAddress].ipfsHash = _newHash;\r\n\r\n        emit ShareholderEdited(_shareholderAddress, _newShares);\r\n    }\r\n\r\n    // Get a shareholder's shares percentage\r\n    function getShareholderShares(\r\n        address _shareholderAddress\r\n    ) internal view returns (uint256) {\r\n        require(\r\n            isShareholder[_shareholderAddress],\r\n            \"Address is not a shareholder\"\r\n        );\r\n        return shareholders[_shareholderAddress].sharesPercentage;\r\n    }\r\n\r\n    function removeShareholder(address shareholder) public {\r\n        require(isShareholder[shareholder], \"Address is not a shareholder\");\r\n\r\n        uint index = shareIndexMap[shareholder];\r\n        uint lastIndex = shareholderAddresses.length - 1;\r\n\r\n        if (index < lastIndex) {\r\n            // Replace the address to be removed with the last address in the array\r\n            address lastShareholder = shareholderAddresses[lastIndex];\r\n            shareholderAddresses[index] = lastShareholder;\r\n            shareIndexMap[lastShareholder] = index;\r\n        }\r\n\r\n        delete shareholders[shareholder];\r\n        // Remove the last address\r\n        shareholderAddresses.pop();\r\n        delete shareIndexMap[shareholder];\r\n        isShareholder[shareholder] = false;\r\n    }\r\n\r\n    function createProposal(\r\n        string memory _proposalId,\r\n        string memory _name,\r\n        string memory _description,\r\n        string memory _hash,\r\n        uint256 _endTime\r\n    ) external onlyOwner {\r\n        //require(shareholderAddresses.length > 0, \"No shareholders registered.\");\r\n        require(bytes(_name).length > 0, \"Proposal name cannot be empty.\");\r\n        require(\r\n            bytes(_description).length > 0,\r\n            \"Proposal description cannot be empty.\"\r\n        );\r\n\r\n        uint256 totalSharesPercentage = getTotalSharesPercentage();\r\n\r\n        require(!exists[_proposalId], \"Proposal ID already exists\");\r\n\r\n        require(\r\n            msg.sender == owner || shareholders[msg.sender].approved,\r\n            \"Caller is not authorized to create proposals.\"\r\n        );\r\n\r\n        require(\r\n            _endTime > block.timestamp,\r\n            \"The End time cannot be in the Past\"\r\n        );\r\n\r\n        proposals[_proposalId].proposalId = _proposalId;\r\n        proposals[_proposalId].name = _name;\r\n        proposals[_proposalId].description = _description;\r\n        proposals[_proposalId].endTime = _endTime;\r\n        proposals[_proposalId].totalSharesPercentage = totalSharesPercentage;\r\n        proposals[_proposalId].forVotesPercentage = 0;\r\n        proposals[_proposalId].againstVotesPercentage = 0;\r\n        proposals[_proposalId].open = true;\r\n        proposals[_proposalId].ipfsHash = _hash;\r\n\r\n        proposalIds.push(_proposalId);\r\n        indexMap[_proposalId] = proposalIds.length - 1;\r\n        exists[_proposalId] = true;\r\n        proposalCount++;\r\n\r\n        emit ProposalCreated(msg.sender, _proposalId, _name, _description);\r\n    }\r\n\r\n    function getProposalIds() public view returns (string[] memory) {\r\n        return proposalIds;\r\n    }\r\n\r\n    function closeProposal(string memory _proposalId) external onlyOwner {\r\n        require(proposals[_proposalId].open, \"Proposal is already closed.\");\r\n        proposals[_proposalId].open = false;\r\n    }\r\n\r\n    function getProposal(\r\n        string memory _proposalId\r\n    )\r\n        external\r\n        view\r\n        returns (\r\n            string memory,\r\n            string memory,\r\n            string memory,\r\n            uint256,\r\n            uint256,\r\n            uint256,\r\n            string memory\r\n        )\r\n    {\r\n        return (\r\n            proposals[_proposalId].proposalId,\r\n            proposals[_proposalId].name,\r\n            proposals[_proposalId].description,\r\n            proposals[_proposalId].totalSharesPercentage,\r\n            proposals[_proposalId].forVotesPercentage,\r\n            proposals[_proposalId].againstVotesPercentage,\r\n            proposals[_proposalId].ipfsHash\r\n        );\r\n    }\r\n\r\n    // Edit proposal details after creation\r\n    function editProposal(\r\n        string memory _proposalId,\r\n        string memory _newName,\r\n        string memory _newDescription,\r\n        uint256 _endTime,\r\n        string memory _newHash\r\n    ) external onlyOwner {\r\n        require(exists[_proposalId], \"Proposal ID not found\");\r\n\r\n        proposals[_proposalId].name = _newName;\r\n        proposals[_proposalId].description = _newDescription;\r\n        proposals[_proposalId].endTime = _endTime;\r\n        proposals[_proposalId].ipfsHash = _newHash;\r\n\r\n        emit ProposalEdited(msg.sender, _proposalId, _newName, _newDescription);\r\n    }\r\n\r\n    function deleteProposal(string memory _proposalId) external onlyOwner {\r\n        require(exists[_proposalId], \"Proposal ID not found\");\r\n\r\n        delete proposals[_proposalId];\r\n\r\n        uint index = indexMap[_proposalId];\r\n        uint lastIndex = proposalIds.length - 1;\r\n\r\n        // Move the last element to the place of the element to delete\r\n        string memory lastProposalId = proposalIds[lastIndex];\r\n        proposalIds[index] = lastProposalId;\r\n        indexMap[lastProposalId] = index;\r\n\r\n        // Remove the last element\r\n        proposalIds.pop();\r\n\r\n        // Remove the value from the mappings\r\n        delete indexMap[_proposalId];\r\n        delete exists[_proposalId];\r\n        proposalCount--;\r\n    }\r\n\r\n    function vote(\r\n        string memory _proposalId,\r\n        bool _inSupport\r\n    ) external onlyShareholder {\r\n        require(\r\n            isShareholder[msg.sender],\r\n            \"Address is not a registered shareholder\"\r\n        );\r\n        require(\r\n            proposals[_proposalId].open,\r\n            \"Voting is closed for this proposal.\"\r\n        );\r\n        require(\r\n            !proposals[_proposalId].voted[msg.sender],\r\n            \"Shareholder has already voted on this proposal.\"\r\n        );\r\n        require(\r\n            block.timestamp <= proposals[_proposalId].endTime,\r\n            \"Voting on Proposal has Ended\"\r\n        );\r\n\r\n        uint256 voterSharesPercentage = shareholders[msg.sender]\r\n            .sharesPercentage;\r\n\r\n        if (_inSupport) {\r\n            proposals[_proposalId].forVotesPercentage += voterSharesPercentage;\r\n        } else {\r\n            proposals[_proposalId]\r\n                .againstVotesPercentage += voterSharesPercentage;\r\n        }\r\n\r\n        proposals[_proposalId].voted[msg.sender] = true;\r\n\r\n        emit Voted(msg.sender, _proposalId, _inSupport);\r\n    }\r\n\r\n    function checkWinner(\r\n        string memory _proposalId\r\n    ) external view returns (string memory) {\r\n        require(\r\n            proposals[_proposalId].open == false,\r\n            \"Voting is still open for this proposal.\"\r\n        );\r\n\r\n        uint256 forVotes = proposals[_proposalId].forVotesPercentage;\r\n        uint256 againstVotes = proposals[_proposalId].againstVotesPercentage;\r\n\r\n        if (forVotes > againstVotes) {\r\n            return \"Proposal passed\";\r\n        } else if (againstVotes > forVotes) {\r\n            return \"Proposal rejected\";\r\n        } else {\r\n            return \"Proposal tied\";\r\n        }\r\n    }\r\n\r\n    function getVoteStatus(\r\n        address _shareholder,\r\n        string memory _proposalId\r\n    ) external view returns (bool hasVoted, bool inSupport) {\r\n        hasVoted = proposals[_proposalId].voted[_shareholder];\r\n        inSupport = hasVoted\r\n            ? (proposals[_proposalId].forVotesPercentage >\r\n                proposals[_proposalId].againstVotesPercentage)\r\n            : false;\r\n    }\r\n\r\n    function getTotalSharesPercentage() internal view returns (uint256) {\r\n        uint256 total = 0;\r\n        for (uint256 i = 0; i < shareholderAddresses.length; i++) {\r\n            total += shareholders[shareholderAddresses[i]].sharesPercentage;\r\n        }\r\n        return total;\r\n    }\r\n}\r\n",
  "sourcePath": "C:\\Users\\noaht\\Desktop\\vote\\contracts\\ShareVoting.sol",
  "compiler": {
    "name": "solc",
    "version": "0.8.4+commit.c7e474f2.Emscripten.clang"
  },
  "schemaVersion": "3.4.16",
  "updatedAt": "2024-08-01T21:33:03.076Z",
  "networkType": "ethereum",
  "devdoc": {
    "kind": "dev",
    "methods": {},
    "version": 1
  },
  "userdoc": {
    "kind": "user",
    "methods": {},
    "version": 1
  }
}